:020000040800F2
:1000000050080020292F0008A9010008AB010008B2
:10001000AF010008B3010008B701000800000000AC
:10002000000000000000000000000000BB0100080C
:10003000BD01000800000000BF010008910B00088E
:10004000432F0008432F0008432F0008432F0008C8
:10005000432F0008432F0008432F0008432F0008B8
:10006000432F0008432F0008432F0008432F0008A8
:10007000432F0008432F0008432F0008432F000898
:10008000432F0008432F0008432F0008432F000888
:10009000432F0008432F0008432F0008432F000878
:1000A000432F0008432F0008432F0008432F000868
:1000B000432F0008432F0008432F0008432F000858
:1000C000432F0008432F0008432F0008432F000848
:1000D000432F0008790C0008432F0008432F000825
:1000E000432F0008432F0008432F0008DFF80CD0EF
:1000F00003F09AFE00480047350100085008002030
:1001000010B54FF47A7000F065FD00F075FC00F05A
:1001100024FD4FF4165000F0E9FD00F073FE00F0EE
:1001200053FB01F0D3F901F049F901F049F800F06F
:10013000BCFE10BDFFF7E4FF4FF47A7000F075FDD0
:100140002DE00821164802F062FC80B90020154914
:100150000870012000F05CFBC82000F066FD01F093
:1001600067F8032000F01FFC01200E4908701021E1
:100170000B4802F04CFC80B900200A4908700220AC
:1001800000F046FBC82000F050FD01F0C9F8032044
:1001900000F009FC01200349087000F0FFF8D0E7E7
:1001A000000C014088000020704700BFFEE700BF40
:1001B000FEE700BFFEE700BFFEE7704770477047ED
:1001C0000CB50020019000906B48006840F480302E
:1001D0006949086000BF6848006800F4003000907A
:1001E0000198401C0190009818B90198B0F5A06FD3
:1001F000F1D16148006810F4003F02D00120009066
:1002000001E0002000900098012842D15B4800687E
:1002100040F01000594908600846006820F00300CB
:1002200008600846006840F00200086052484068D4
:10023000514948600846406848600846406840F4B4
:10024000806048600846406820F47C10486008469A
:10025000406840F4E81048600846006840F080704C
:10026000086000BF4448006810F0007FFAD04248A0
:10027000406820F00300404948600846406840F06C
:100280000200486000BF3C48406800F00C000828AD
:10029000F9D10CBD10B5FFF793FF10BD10B536486E
:1002A000006840F00100344908600846406834495D
:1002B00008403149486008460068324908402E49E4
:1002C00008600846006820F48020086008464068FE
:1002D00020F4FE0048604FF41F008860FFF7DAFF4B
:1002E0004FF000602849086010BD10B500210020C3
:1002F0000022214B5B6803F00C0121B1042906D0D8
:10030000082928D107E0214B214C236027E01F4B0F
:100310001F4C236023E0184B5B6803F47010164BEE
:100320005B6803F48032022303EB904022B9194B3F
:100330004343174C23600DE00F4B5B6813F4003F01
:1003400004D0144B4343124C236003E00F4B434350
:100350000F4C236003E00D4B0D4C236000BF00BF2A
:10036000054B5B68C3F303130B4CE15C084B1B6844
:10037000CB40074C236010BD00100240002002401B
:100380000000FFF8FFFFF6FE08ED00E000127A0023
:100390001000002000093D001400002070B5EC485A
:1003A000007800285CD00020E9490870E94880788E
:1003B00020B1012803D0022850D134E04FE000BF23
:1003C00000BFE448C0780006E249097940EA0140EC
:1003D000E049497940EA0120DE498979084342F23F
:1003E00010714843642190FBF1F004B2D948C07900
:1003F0000006D849097A40EA0140D649497A40EADC
:100400000120D449897A084342F21071484364219B
:1004100090FBF1F005B22946204600F094FB002045
:10042000CD4908701BE00120CB490870C948C0784D
:100430000006C849097940EA0140C649497940EABD
:100440000120C4498979084342F21071484364216C
:1004500090FBF1F000B2C149088000E000BF00BF8E
:1004600070BD10B5BE48007820B9BE480068BE49CE
:10047000086076E0BD4991F90010BD4A12785143F9
:10048000BA4A92F90120BB4B1B7803FB0212B74911
:1004900091F90210B84B1B7803FB0121B34A92F982
:1004A0000320B64B1B7803FB021003F04BFCAE4954
:1004B0000860AE4991F90410B14A12785143AB4A31
:1004C00092F90520AF4B1B7803FB0212A74991F963
:1004D0000610AD4B1B7803FB0121A44A92F90720BB
:1004E000AA4B1B7803FB021003F02CFC04469E4829
:1004F0000168204603F058FB9B4908609848007843
:1005000003F029FC044621469748006803F0DAFB13
:10051000954908604FF081419348006803F044FC1E
:100520000AD29B498F48006803F034FC04D88D48F8
:1005300000688D49086014E096498B48006803F014
:1005400029FC0AD294498748006803F02DFC04D89E
:10055000844800688449086003E083480068814952
:1005600008608148006810BD2DE9FF5F804689461C
:100570001446B8F1000F7DD0002500F042FDFFF7D2
:1005800070FF77480078052875DA002600270020DC
:100590000390484603F0D6FB8246734801685046F4
:1005A00003F054FB7D4908607D4801687B48006882
:1005B00003F04CFB7B49086000217848006803F099
:1005C000E9FB03D100207849086007E0734801681F
:1005D0007548006803F0E8FA734908606F480068DE
:1005E0006F49086071497048006803F0DDFB02D272
:1005F0006E486D4908606E496B48006803F0CAFB9D
:1006000002D26B4868490860B4F57A6F01DA0025B8
:1006100008E0B4F5FA5F01DC012503E0B4F5FA5F08
:1006200000DD02255D48006803F09AFBB0F1000A86
:1006300001DB504601E0CAF10000022825DC5D49DB
:1006400051F825005749096803F006FB5A49029002
:100650005548006803F036FB0021009003F0FCFAD7
:100660008346564951F825004C49096803F0F4FACD
:10067000594601E061E05AE0019003F095FA8246A4
:10068000029903F091FA039024E04A4951F82500B9
:100690004449096803F0E0FA47490290424800687B
:1006A00003F010FB0090464850F82510009803F026
:1006B000D3FA8346414951F825003849096803F0C7
:1006C000CBFA5946019003F06FFA8246029903F083
:1006D0006BFA0390204603F035FB8346039903F041
:1006E00063FA824603F03CFB06B2204603F02AFB85
:1006F0008346039903F0AAFA824603F031FB07B25E
:1007000042F21070864200DD06462E48864200DA2C
:10071000064642F21070874200DD074629488742AC
:1007200000DA07463946304600F00DFA04E00020B2
:100730000949087000F011FA08E000201749086024
:10074000174908601749086017490860BDE8FF9F0E
:10075000900000200E020020700000207200002097
:10076000A0000020300000202C00002024000020E9
:1007700098000020990000209A0000209B00002093
:100780009C0000209D0000209E0000209F00002073
:100790000000E0C0000080C00000E0403C000020FD
:1007A0004000002044000020480000200000FA43E0
:1007B0000000FAC364000020000020414C0000202B
:1007C00058000020F0D8FFFF10B501211C2002F0D6
:1007D00043FB4FF480407E4908801020C8700320FE
:1007E00088707C4802F082F84FF400407849088015
:1007F0001020C87003208870764802F077F810BD8A
:100800004FF48040734910310860091D086070473B
:1008100030B502468024002312E002EA04052DB917
:100820004FF400406B491031086004E04FF4004081
:10083000684914310860FFF7E3FF6410581CC3B225
:10084000082BEADB30BD6448B0F900006349B1F918
:100850000010884200D170475F48B0F900005F493E
:1008600008805D48B0F90000002807DA5A4800887F
:1008700042F21071084400B2574908805648B0F956
:1008800000000A2190FBF1F201FB120040B2544932
:1008900008705148B0F90000642190FBF1F201FBAF
:1008A00012000A2190FBF1F040B24E4908704A480C
:1008B000B0F900004FF47A7190FBF1F201FB1200E5
:1008C000642190FBF1F040B2474908704248B0F90A
:1008D00000004FF47A7190FBF1F040B24349087088
:1008E00000BFB8E700B542480078401C4049087096
:1008F00008460078042855D1002008703D4800784B
:10090000401C3C490870FFF79EFF3A4800780128D8
:1009100006D002280BD003281DD004283DD12BE09F
:100920002F4909787031C8B2FFF772FF39E02F48BC
:10093000007848B92C48007830B92A48007818B9AE
:10094000FF20FFF765FF05E026490978B031C8B2FE
:10095000FFF75EFF25E02548007830B9224800788F
:1009600018B9FF20FFF754FF05E01F490978D0317F
:10097000C8B2FFF74DFF14E01C48007818B9F0200A
:10098000FFF746FF05E019490978E031C8B2FFF7E3
:100990003FFF00201749087003E000201549087048
:1009A00000BF00BF00BD10B504460BE0FF20FFF7FD
:1009B0002FFFC82000F039F90020FFF729FFC820D9
:1009C00000F033F92000A4F10101CCB2EED110BD4A
:1009D00000000020000C0140780000207A00002078
:1009E0007C0000207D0000207E0000207F00002091
:1009F000760000207700002010B501211C2002F0B5
:100A00002BFA0121084602F027FA0121564802F08C
:100A10003CF80121554802F038F80220544908807A
:100A20001020C87003208870524801F05FFF4FF417
:100A300000604F4908804F4801F058FF01204C49A1
:100A400008801820C870032088704A4801F04EFFC3
:100A50004FF4806046490880464801F047FF012175
:100A6000022002F006FA0121084602F002FA42488A
:100A700000684249B0FBF1F0401E4149088042F253
:100A80000F70404988803E48008808800020C88058
:100A900048803D4800F01EFE3A494FF0804000F08B
:100AA00019FE602039490880012048800020C88054
:100AB00002200881344800F0D9FE0821324801F0B4
:100AC000ABFA0121304801F061FA01212E4801F012
:100AD0005DF92E494FF0804000F0C8FE0821C8069D
:100AE00001F09AFA0121880701F050FA01218807E4
:100AF00001F04CF910BD002807DB02211D4A10321D
:100B00001160214A3C32108008E0414208B20221C3
:100B1000184A143211601C4A3C3210807047002879
:100B200007DB4FF40061134A10321160CA0490874A
:100B300008E0414208B24FF400610E4A14321160DD
:100B4000CA049087704710B504460B461846FFF755
:100B5000D2FF2046FFF7E3FF10BD00B50021084695
:100B6000FFF7F1FF00BD0000000430000002180094
:100B700000000020000C014010000020404B4C0001
:100B800080000020D800002000040040E200002087
:100B900010B52F480088401C2D4908802D4800883A
:100BA000401C2C4908802C480088401C2A49088099
:100BB0002A48007828B12A480078FFF729FE00F07B
:100BC00020FA2848B0F90020002127480078FFF7D4
:100BD000CBFC10BD70B5034624480068B0FBF3F1B0
:100BE000B1F1807F01D301201BE021F07F40401E46
:100BF0004FF0E022506150170F22002806DA14014E
:100C00001B4D00F00F06361FAC5502E01401194DC4
:100C10002C5400BF00204FF0E022906107201061AB
:100C2000002008B100BFFEE770BD0021094A118015
:100C300000BF084909888142FBDB7047C0EBC00157
:100C4000480000BF0100A0F10100FBD17047000087
:100C50008200002084000020860000208800002000
:100C6000940000207200002070000020100000207E
:100C700018ED00E000E400E010B540F225515648C0
:100C800001F022FD88B3544801F09EFCC4B25348E1
:100C90000078FA2802DD00205049087050484F497A
:100CA000097844544D480078401C4C490870084667
:100CB000007802280BD14A480078022804D148481D
:100CC00040784849088002E00020444908704348C1
:100CD000007844490988884207D1032C05D10120B6
:100CE0004149087000203D49087010BD10B5044608
:100CF0000121052002F0B0F80121880302F0ACF8D0
:100D00004FF4007039490880032088701820C8709B
:100D1000374801F0EBFD4FF480603449088004202F
:100D2000C870334801F0E2FD3248046000203149C8
:100D30008880C880088188810C204881264801F07D
:100D400046FB25202C49087000204870887001203F
:100D5000C870084601F001FD012240F225511E48ED
:100D600001F0CDFB01211C4801F0BDFB10BD70B5A9
:100D700004460220214908700846447003210246B7
:100D8000A01C115401201E49087000250DE01B48CD
:100D9000415D114801F014FC00BF40210E4801F0F4
:100DA0007DFC0028F9D0681CC5B2E01C8542EEDB52
:100DB00000201349087070BD70B504460D46E1B2BD
:100DC000054801F0FDFB00BF4021034801F066FC2F
:100DD0000028F9D0204670BD003801408A0000206C
:100DE0000E0200208E000020900000200000002055
:100DF00000080140C8000020040000201401002069
:100E00009100002008B50121082002F025F84FF4D8
:100E10008050ADF8000010208DF8030003208DF8FD
:100E200002006946174801F061FD00224FF480512D
:100E3000144801F00AFE08BD10B50446002012490E
:100E4000088004E0012211030E4801F0FEFD0E4867
:100E50000088A042F6DB00224FF48051094801F0DF
:100E6000F4FD10BD70B504460D4607E02846FFF7B7
:100E7000E3FF2820FFF7D9FE601EC4B2002CF5DC8A
:100E800070BD0000000C01408200002008B5002168
:100E9000009100EBC0014900009102E00099491E59
:100EA000009100990029F9D108BD00B591B0012148
:100EB0004FF4017001F0D0FF0121084601F0BFFF9F
:100EC000FF20ADF8400003208DF8420000208DF88F
:100ED000430010A9F84801F009FDF84802F03CFD74
:100EE000F7480090F74801900020029008200390F6
:100EF000002004908020059040000690800007901C
:100F0000202008900002099000200A906946EB48D2
:100F100002F0C4FD0121E94802F0EBFD00200B9036
:100F200001208DF830008DF831004FF460200D90D5
:100F300000200E9008208DF83C000BA9E0484C38AA
:100F400002F02BF8002301221946DD484C3802F04C
:100F5000BCF8002302220121D9484C3802F0B5F830
:100F6000002303220221D6484C3802F0AEF80023B9
:100F700004220321D2484C3802F0A7F800230522AE
:100F80000421CF484C3802F0A0F8002306220521A6
:100F9000CB484C3802F099F8002307220621C848B4
:100FA0004C3802F092F8002308220721C4484C383C
:100FB00002F08BF80121C2484C3802F025F80121DB
:100FC000BF484C3802F015F8BD484C3802F033F8F1
:100FD00000BFBB484C3802F033F80028F9D1B848BC
:100FE0004C3802F037F800BFB5484C3802F037F8FB
:100FF0000028F9D10121B2484C3802F03AF811B07A
:1010000000BD30B50120802200230024AE4D2C709D
:10101000002112E0AB4C34F81140AC4D35F81150C2
:10102000AC4205DA0343A84C24781443A64D2C7037
:101030004406200E52104C1CE1B20829EADBA44CF5
:101040006478A34DAC702C4624786C702C462370C9
:10105000A4786D78AC4209D19D4C64789C4D2D7874
:10106000AC4203D19A4C24789A4D2C700120002474
:10107000994D2C70994D2C70994D2C70994D2C7068
:10108000994D2C70994D2C70994D2C70994D2C7058
:10109000904C2478044202D00124924D2C704000E0
:1010A0008C4C2478044202D001248D4D2C704000D9
:1010B000884C2478044202D00124884D2C704000D2
:1010C000844C2478044202D00124834D2C704000CB
:1010D000804C2478044202D00124834D2C704000BF
:1010E0007C4C2478044202D00124804D2C704000B6
:1010F000784C2478044202D001247D4D2C704000AD
:10110000744C2478044202D001247A4D2C70754C22
:101110002478734D2D782C44704D2D782C446E4DD1
:101120002D782C44744D2C70724C2478704D2D7891
:101130002C446E4D2D782C446B4D2D782C446F4DE6
:101140002C70684C2478664D2D782C44634D2D7896
:101150002C44614D2D782C44634D2D782C44634DE7
:101160002D782C44624D2D782C44624D2D782C44E2
:10117000634D2C7030BD00200BE0624931F8101037
:10118000614A32F81020891A604A22F81010411C76
:10119000C8B20828F1DB00200FE05C4931F81010DC
:1011A00089000A2291FBF2F1574A32F810201144CB
:1011B000464A22F81010411CC8B20828EDDB7047DF
:1011C00010B53220FFF731FD00F043F900240FE0A5
:1011D0004F4830F814004B4921F8140004F108007E
:1011E0004B4931F81000484921F81400601CC4B282
:1011F000082CEDDB3220FFF718FDFFF7BCFF10BD18
:1012000010B500240FE03F4830F81400404921F8A1
:1012100014003D4830F8141004F108003C4A22F84C
:101220001010601CC4B2082CEDDB00F0CEF810BD2D
:1012300010B56420FFF7F9FC002407E0214830F8DE
:101240001400344921F81400601CC4B2082CF5DBEA
:10125000002407E01B4830F814002F4921F814003F
:10126000601CC4B2082CF5DB002407E0154830F8F8
:1012700014002A4921F81400601CC4B2082CF5DBC4
:10128000002412E0234830F81400234931F81410E8
:101290000844224931F814100844032190FBF1F06E
:1012A000184921F81400601CC4B2082CEADBFFF7CF
:1012B00062FFFFF7A5FF10BD0008014008000240D3
:1012C0004C24014008030020940000203803002033
:1012D00095000020930000209B0000209A00002031
:1012E00099000020980000209C0000209D00002014
:1012F0009E0000209F000020A1000020A2000020EE
:10130000A00000201803002028030020480300202C
:101310008803002058030020680300207803002081
:1013200010B56420FFF781FC002407E01E4830F868
:1013300014001E4921F81400601CC4B2082CF5DB0F
:10134000002407E0184830F81400194921F8140067
:10135000601CC4B2082CF5DB002407E0124830F80A
:101360001400144921F81400601CC4B2082CF5DBE9
:10137000002412E00D4830F814000D4931F8141023
:1013800008440C4931F814100844032190FBF1F093
:10139000094921F81400601CC4B2082CEADBFFF7ED
:1013A000EAFEFFF72DFF10BD0803002058030020C0
:1013B00068030020780300202803002010B502F005
:1013C00012F801203949086010BD10B500243420FE
:1013D00002F09EFA0020364908600EE034490968A0
:1013E000344A131403FB012002F03CF83249087020
:1013F0002F480068401C2E4908602D4800682B4982
:101400000968884203D22C4800780428E6D029488D
:101410002A49086012E02A4830F81410274800686A
:1014200002F0F0F82449087024480068001D2349A0
:101430000860601C84B2642C00D108E01F4800687A
:101440002049884203D21C4800780428E3D000BF1A
:1014500010BD00201749194A11600FE017490968AB
:101460000968174A22F8101014490968091D134A1F
:101470001160411C88B2642800D108E00F49096856
:10148000104A914203D2104909780029E6D100BFE1
:101490007047002000BF05E00021094A22F8101023
:1014A000411C88B26428F7DB70470000AC000020C4
:1014B000A400002000800008B0000020A800002048
:1014C0008803002000880008B100002008B5012131
:1014D0000C2001F0C1FC0121084601F0BDFC0121F6
:1014E0000F4801F0D2FA4FF40040ADF80000482058
:1014F0008DF8030003208DF802006946094801F0C9
:10150000F5F90820ADF800006946074801F0EEF94A
:101510001020ADF800006946034801F0E7F908BD66
:101520000004300000080140000C014010B50446E2
:10153000FE48844208D10121C01401F0A7FC00211B
:10154000E01401F0A3FCC4E0B4F1804F08D1012104
:10155000084601F0A8FC0021012001F0A4FCB8E03D
:10156000F348844208D10121022001F09CFC0021B3
:10157000022001F098FCACE0EE48844208D1012141
:10158000042001F090FC0021042001F08CFCA0E07C
:10159000E948844208D10121082001F084FC00219F
:1015A000082001F080FC94E0E448844208D1012145
:1015B000102001F078FC0021102001F074FC88E07C
:1015C000DF48844208D10121202001F06CFC002179
:1015D000202001F068FC7CE0DA48844208D1012137
:1015E000401401F053FC0021601401F04FFC70E046
:1015F000D548844209D10121C80401F047FC0021EB
:101600004FF4002001F042FC63E0D048844209D14D
:101610000121080501F03AFC00214FF4801001F08F
:1016200035FC56E0CA48844209D10121480501F041
:101630002DFC00214FF4001001F028FC49E0C548C2
:10164000844208D10121402001F02DFC00214020DE
:1016500001F029FC3DE0C048844208D101218020EE
:1016600001F021FC0021802001F01DFC31E0BB488D
:10167000844208D10121801501F015FC0021A0153C
:1016800001F011FC25E0B648844209D1012108048B
:1016900001F0FCFB00214FF4803001F0F7FB18E073
:1016A000B048844209D10121480401F0EFFB002138
:1016B0004FF4003001F0EAFB0BE0AB48844208D164
:1016C0000121880401F0E2FB00214FF4802001F0A9
:1016D000DDFB10BD00220288944B98420ED0994B3E
:1016E00098420BD0B0F1804F08D0914B984205D072
:1016F000904B984202D0904B984204D14FF68F7392
:101700001A404B881A438D4B984207D08C4B984215
:1017100004D04FF6FF431A40CB881A4302808B88CF
:1017200083850B880385814B98420BD0854B98426B
:1017300008D08B4B984205D08A4B984202D08A4BF6
:10174000984201D10B7A038601238382704770B5DA
:10175000002400220023058C4FF6FE7635400584D8
:10176000028C8388048B4FF68F752C40B51E2C405D
:101770000D882C43751E2A400D892A434D882A4323
:101780006A4DA8420BD06F4DA84208D0744DA842B4
:1017900005D0744DA84202D0734DA84213D14FF624
:1017A000F7752A404D892A434FF6FB752A408D88EC
:1017B0002A434FF6FF652B404FF6FF552B408D898E
:1017C0002B43CD892B4383800483CD888586028477
:1017D00070BD70B5002400220023058C4FF6EF7613
:1017E00035400584028C8388048B48F6FF752C40B5
:1017F0004FF6FF452C400D884FF6FF7606EA05258B
:101800002C434FF6DF752A400D8906EA05152A4359
:101810004D8806EA05152A43444DA84202D0494D99
:10182000A8421DD14FF67F752A404D894FF6FF76AD
:1018300006EA05152A434FF6BF752A408D8806EA49
:1018400005152A434FF6FF352B404FF2FF752B400D
:101850008D8906EA85052B43CD8906EA85052B434C
:1018600083800483CD880587028470BD70B5002411
:1018700000220023058C4FF6FF6635400584028C5C
:101880008388848B4FF68F752C404FF6FC752C4067
:101890000D882C434FF6FF552A400D894FF6FF76F1
:1018A00006EA05252A434D8806EA05252A431F4DE9
:1018B000A84202D0234DA8421DD14FF2FF752A4005
:1018C0004D894FF6FF7606EA05252A434FF6FF3588
:1018D0002A408D8806EA05252A434EF6FF752B40DF
:1018E0004DF6FF752B408D8906EA05152B43CD89F2
:1018F00006EA05152B4383808483CD88858702847F
:1019000070BD70B5002200230024058C4EF6FF76D2
:1019100035400584038C8488828B48F6FF752A4005
:101920004FF6FF452A400D8820E00000002C0140C2
:101930000004004000080040000C0040001000407F
:101940000014004000340140004C014000500140B0
:101950000054014000180040001C004000200040DE
:101960000040014000440140004801404FF6FF762E
:1019700006EA05252A434DF6FF752B400D8906EA38
:1019800005352B434D8806EA05352B43FA4DA84211
:1019900002D0FA4DA84208D14BF6FF752C408D8934
:1019A0004FF6FF7606EA85152C4384808283CD8826
:1019B000A0F84050038470BD828B4FF2FF331A4071
:1019C0008283828B4FF6FF7303EA01231A438283DB
:1019D0007047F0B50C461546002200210026078C02
:1019E0004EF6FF7C07EA0C070784828B018C4FF6CA
:1019F000FF7707EA043640F6FF473A404FF6FF7795
:101A000007EA05273A434FF6FF7707EA03373A43D9
:101A1000D94FB8420ED0D94FB8420BD0B0F1804F59
:101A200008D0D74FB84205D0D64FB84202D0D64FD3
:101A3000B84206D14DF6FF77394046F48057394316
:101A400005E047F6FF57394044F480573943828315
:101A50000184F0BD828B4FF6F3731A408283828B30
:101A60000A4382837047F0B50C46154600220021D8
:101A70000026078C4FF6FF6C07EA0C070784828B61
:101A8000018C4FF6FF7707EA04264FF60C773A40B1
:101A90004FF6FF7707EA03172F433A43B64FB84292
:101AA0000ED0B64FB8420BD0B0F1804F08D0B44F33
:101AB000B84205D0B34FB84202D0B34FB84206D1B6
:101AC0004FF6FF57394046F48077394305E04FF22F
:101AD000FF57394044F48077394382830184F0BD55
:101AE000028B4FF2FF331A400283028B4FF6FF73D3
:101AF00003EA01231A4302837047F0B50C461546EA
:101B0000002200210026078C4FF6EF7C07EA0C0725
:101B10000784028B018C4FF6FF7707EA041640F624
:101B2000FF473A404FF6FF7707EA03373A434FF64D
:101B3000FF7707EA05273A438F4FB8420ED08F4F01
:101B4000B8420BD0B0F1804F08D08D4FB84205D0CD
:101B50008C4FB84202D08C4FB84206D14FF6DF7797
:101B6000394046F01007394305E04FF65F773940BA
:101B700044F01007394302830184F0BD028B4FF615
:101B8000F3731A400283028B0A4302837047F0B555
:101B90000C46154600220021068C4FF6FE773E408B
:101BA0000684028B018C4FF60C7632407E1C06EACE
:101BB00003162E433243704EB0420ED06F4EB042E9
:101BC0000BD0B0F1804F08D06D4EB04205D06D4EB5
:101BD000B04202D06C4EB04206D14FF6FD76314095
:101BE00044F00106314305E04FF6F576314044F00C
:101BF0000106314302830184F0BD70B505460C46F1
:101C00005D4885420ED05D4885420BD0B5F1804FCE
:101C100008D05B48854205D05A48854202D05A48D0
:101C2000854200D100E000BF208850B92389A288F6
:101C300061882846FFF7ABFFE1882846FFF79EFF43
:101C400025E0208804280AD12389A28861882846B3
:101C5000FFF753FFE1882846FFF742FF17E020888F
:101C600008280AD12389A28861882846FFF7FBFE4D
:101C7000E1882846FFF7EEFE09E02389A288618803
:101C80002846FFF7A6FEE1882846FFF795FE70BDBF
:101C90002DE9F04105460C4600260127608808B969
:101CA000022600E00026A088012801D1022700E0DA
:101CB00001272088A0B92389A28861882846FFF7D8
:101CC00066FFE1882846FFF759FF23893A463146E7
:101CD0002846FFF712FFE1882846FFF701FF13E0CF
:101CE0002389A28861882846FFF707FFE1882846F4
:101CF000FFF7F6FE23893A4631462846FFF747FFAD
:101D0000E1882846FFF73AFFBDE8F0810A884B8852
:101D10001A438B881A43CB881A430B891A434B8981
:101D20001A438B891A43A0F8442070474FF6FF717D
:101D3000818000210180C1804180017270470021B3
:101D4000018041808180C180018141818181C18187
:101D50007047002101804180012181800021C180E4
:101D6000018170470021018041808180C180018113
:101D70004181818170470000002C01400034014006
:101D80000004004000080040000C004021B102881F
:101D900042F00102028004E002884FF6FE731A400E
:101DA0000280704731B1B0F8442042F40042A0F8FC
:101DB000442005E0B0F84420C2F30E02A0F844200D
:101DC00070471AB183890B43838102E083898B4377
:101DD000838170478182704741EA0203A0F848304E
:101DE00070471AB183890B43838102E083898B4357
:101DF0008381704701894FF6F87211400181704765
:101E00000A46002101894FF68F7319401143018161
:101E1000704730B504460D4629462046FFF7F0FFCF
:101E2000208940F00700208130BD2DE9F0410446B3
:101E30000D4616461F46602D06D13B46012231460F
:101E40002046FFF75AFE05E03B4601223146204678
:101E5000FFF79DFE29462046FFF7D2FF208940F07C
:101E600007002081BDE8F08130B50C4600210189D2
:101E7000C9B24FF6FF7505EA0325154325432943EB
:101E8000018130BD2DE9F04105460E4617469846C2
:101E9000002443463A4631462846FFF7E5FF2C89A1
:101EA0004FF6F870044044F007044FF68F7004407A
:101EB00044F070042C81BDE8F081F0B504460D4675
:101EC00016461F463B46324629462046FFF7CCFFC2
:101ED000208940F480402081F0BD018582827047D6
:101EE0000A46002101884FF68F7319401143018083
:101EF0007047F0B50C4615461E460021002200230F
:101F00000189028B038C4FF6F877394021434FF655
:101F1000FC473A4040F201173A434FF6DD773B4029
:101F20004FF6FF7707EA06172F433B4301810283F1
:101F30000384F0BD0A460021018B4FF68F731940D0
:101F40001143018370470A460021018B48F6FF7355
:101F500019404FF6FF7303EA0223194301837047C8
:101F60000A460021818B4FF68F73194011438183FC
:101F700070470A460021818B48F6FF7319404FF6DF
:101F8000FF7303EA022319438183704721B102885A
:101F900042F08002028004E002884FF67F731A400C
:101FA0000280704721B1828842F00402828004E0FE
:101FB00082884FF6FB731A408280704721B1828875
:101FC00042F00802828004E082884FF6F7731A40DC
:101FD0008280704721B1828842F00102828004E051
:101FE00082884FF6FE731A40828070470A460021AD
:101FF000018B4FF6F77319401143018370470A466E
:102000000021018B4FF2FF7319404FF6FF7303EA73
:1020100002231943018370470A460021818B4FF642
:10202000F77319401143818370470A460021818B61
:102030004FF2FF7319404FF6FF7303EA022319436F
:10204000818370470A460021018B4FF6FB731940CC
:102050001143018370470A460021018B4FF6FF337D
:1020600019404FF6FF7303EA0223194301837047B7
:102070000A460021818B4FF6FB731940114381837F
:1020800070470A460021818B4FF6FF3319404FF607
:10209000FF7303EA02231943818370470A46002134
:1020A000018B4FF67F7319401143018370470A4635
:1020B0000021018BC1F30E014FF6FF7303EA0223E7
:1020C0001943018370470A460021818B4FF67F73C5
:1020D00019401143818370470A460021818BC1F367
:1020E0000E014FF6FF7303EA022319438183704701
:1020F0000A460021018C4FF6FD73194011430184FB
:1021000070470A460021018C4FF6F77319401143BE
:10211000018470470A460021018C4FF6DF73194095
:102120004FF6FF7303EA02131943018470470A460E
:102130000021018C4FF67F7319404FF6FF7303EABD
:1021400002131943018470470A460021018C4FF69F
:10215000FF5319404FF6FF7303EA0223194301842A
:1021600070470A460021018C4FF2FF7319404FF669
:10217000FF7303EA02231943018470470A460021D2
:10218000018C4DF6FF7319404FF6FF7303EA0233DB
:1021900019430184704730B5002301248C40A3B259
:1021A000048C9C430484048C02FA01F5ADB22C43E8
:1021B000048430BD30B5002304248C40A3B2048CC9
:1021C0009C430484048C02FA01F5ADB22C430484D0
:1021D00030BD70B503460020002418461830012594
:1021E0008D40ACB21D8CA5431D8409B1082909D1CD
:1021F00000EB6100056825F0700505600568154372
:1022000005600EE00D1FC5F34E052844056825F452
:10221000E045056005684FF6FF7606EA022635437D
:10222000056070BD21B1028842F00202028004E024
:1022300002884FF6FD731A400280704721B1028870
:1022400042F00402028004E002884FF6FB731A4059
:102250000280704721B1828842F08002828004E0CF
:1022600082884FF67F731A408280704702884FF64B
:10227000F7731A40028002880A43028070478288FE
:102280004FF68F731A40828082880A43828070479B
:1022900002894FF6F8731A40028102890A430281CB
:1022A000704702894FF67F731A40028102890A4300
:1022B00002817047818470478185704781867047AD
:1022C0000187704781877047A0F8401070470288E7
:1022D0004FF6FF431A40028002880A43028070478B
:1022E0000146888E70470146088F70470146888FE7
:1022F00070470146B1F8400070470146888C70472E
:102300000146088D704702460020138A0B4201D017
:10231000012000E000207047CA430282704730B5B8
:102320000246002000230024158A05EA010395894E
:1023300005EA010413B10CB1012000E0002030BD1A
:10234000CA4302827047000010B50446FB4884422D
:1023500009D10121880300F099FD00214FF480404C
:1023600000F094FD32E0F648844209D1012148048E
:1023700000F099FD00214FF4003000F094FD25E0BD
:10238000F048844209D10121880400F08CFD00212D
:102390004FF4802000F087FD18E0EB48844209D11B
:1023A0000121C80400F07FFD00214FF4002000F05F
:1023B0007AFD0BE0E548844208D10121080500F0D0
:1023C00072FD00214FF4801000F06DFD10BD2DE96D
:1023D000F04786B005460E460024A24600BFA1463F
:1023E0000027B08900B100BF2F462C8A4CF6FF7041
:1023F0000440F08804432C82AC894EF6F31004406C
:10240000B08831890843718908430443AC81AC8AA0
:102410004FF6FF400440B0890443AC8201A800F0AD
:10242000AEFCC648874202D1DDF810A001E0DDF81D
:102430000CA0A88910F4004F08D00AEBCA0000EBEA
:102440000A1031684900B0FBF1F807E00AEBCA0056
:1024500000EB0A1031688900B0FBF1F86420B8FB8A
:10246000F0F004012009642101FB1089A88910F40F
:10247000004F08D0322000EBC900B0FBF1F000F0B3
:102480000700044308E0322000EB09106421B0FB90
:10249000F1F000F00F0004432C8106B0BDE8F08796
:1024A0004FF41651016000218180C18001810C210F
:1024B000418100218181704710B502460020108AB9
:1024C0004FF2FF0318400B884C8823438C8823432A
:1024D000CC8823431843108210BD00210180418025
:1024E0008180C180704721B1828942F4005282818B
:1024F00004E082894DF6FF731A4082817047F0B57F
:1025000003460024002600250020A1F510676A3F3D
:1025100000D100BF1846C1F3421401F01F06012785
:1025200007FA06F5012C01D10C3004E0022C01D190
:10253000103000E014301AB107682F43076002E042
:102540000768AF430760F0BD1AB1838A0B438382EB
:1025500002E0838A8B4383827047028A4FF6F073CE
:102560001A400282028A0A430282704782894FF22D
:10257000FF731A40828182890A438281704721B1A8
:10258000828942F00202828104E082894FF6FD7363
:102590001A4082817047028A4FF6DF731A40028226
:1025A000028A0A430282704721B1028A42F48042C1
:1025B000028204E0028A4BF6FF731A4002827047DF
:1025C000C1F308028280704701468888C0F3080082
:1025D0007047818941F0010181817047028BD2B23D
:1025E0000283028B42EA012202837047028B02F4CB
:1025F0007F420283028B0A430283704721B1828AA1
:1026000042F02002828204E0828A4FF6DF731A4091
:102610008282704721B1828A42F01002828204E0F5
:10262000828A4FF6EF731A408282704721B1828A04
:1026300042F00802828204E0828A4FF6F7731A4061
:102640008282704721B1828942F40042828103E094
:102650008289C2F30E028281704721B1828A42F4DC
:102660000062828204E0828A4FF2FF731A40828203
:102670007047828A4FF6FB731A408282828A0A432D
:102680008282704721B1828A42F00202828204E093
:10269000828A4FF6FD731A408282704702460020FC
:1026A000B1F5007F00D100BF13880B4201D001209B
:1026B00000E00020704701F40072B2F5007F00D105
:1026C00000BFCA430280704770B502460024002351
:1026D00000250020A1F510666A3E00D100BFC1F3BD
:1026E000421501F01F03012606FA03F3012D02D162
:1026F0009689334006E0022D02D1168A334001E06C
:10270000968A33400C12012606FA04F416883440E7
:1027100013B10CB1012000E0002070BD10B5002203
:102720000023A1F510646A3C00D100BF0A12012405
:102730009440A3B2DC43048010BD00000038014087
:102740000044004000480040004C00400050004061
:1027500031490143314A1160704770B500210023AF
:102760000F22C4780CB32D4C246804F4E064C4F543
:10277000E064210AC1F10403CA40447804FA03F179
:102780008478144021430901254C0678A15504782A
:1027900004F01F050124AC4005786D114FF0E026D0
:1027A00006EB8505C5F8004109E0047804F01F0533
:1027B0000124AC401B4D0678761145F8264070BDCB
:1027C000194A0A400243154B1B1F1A60704739B162
:1027D000124A121D12680243104B1B1D1A6006E0BC
:1027E0000E4A121D126882430C4B1B1D1A60704763
:1027F000042808D14FF0E021096941F004014FF0AD
:10280000E022116107E04FF0E021096921F00401A5
:102810004FF0E022116170470000FA050CED00E076
:1028200000E400E080E100E080FFFF1F10B50446F7
:10283000CA48844208D10121042000F027FB00216E
:10284000042000F023FB46E0C548844208D1012162
:10285000082000F01BFB0021082000F017FB3AE0E5
:10286000C048844208D10121102000F00FFB002154
:10287000102000F00BFB2EE0BB48844208D1012160
:10288000202000F003FB0021202000F0FFFA22E0CE
:10289000B648844208D10121402000F0F7FA002117
:1028A000402000F0F3FA16E0B148844208D101213B
:1028B000802000F0EBFA0021802000F0E7FA0AE027
:1028C000AC48844207D10121801500F0DFFA0021D5
:1028D000A01500F0DBFA10BD10B50121084600F08C
:1028E000D5FA0021012000F0D1FA10BD2DE9F04108
:1028F000024600250026002000230024002791F82E
:1029000003C00CF00F0591F803C01CF0100F03D0AA
:1029100091F802C04CEA050591F800C0BCF1000F27
:1029200031D0146800202BE04FF0010C0CFA00F3BA
:10293000B1F800C00CEA03069E4220D183004FF09C
:102940000F0C0CFA03F7BC4305FA03FC4CEA040431
:1029500091F803C0BCF1280F06D14FF0010C0CFA1E
:1029600000FCC2F814C00AE091F803C0BCF1480FA3
:1029700005D14FF0010C0CFA00FCC2F810C0401C4D
:102980000828D1D31460B1F800C0BCF1FF0F34DDCA
:10299000546800202EE000F1080C4FF0010808FAFE
:1029A0000CF3B1F800C00CEA03069E4221D183006B
:1029B0004FF00F0C0CFA03F7BC4305FA03FC4CEA8A
:1029C000040491F803C0BCF1280F05D100F1080CF4
:1029D00008FA0CF8C2F8148091F803C0BCF1480F53
:1029E00007D100F1080C4FF0010808FA0CF8C2F802
:1029F0001080401C0828CED35460BDE8F0814FF60B
:102A0000FF710180022181700421C170704702466C
:102A1000002093680B4201D0012000E000207047A5
:102A20000146886880B2704702460020D3680B4296
:102A300001D0012000E0002070470146C86880B244
:102A4000704701617047416170470AB1016100E060
:102A500041617047C16070474FF480320A43826120
:102A60008161826182698269704702460020424B1F
:102A700018684FF68073184040EA021008433E4B36
:102A8000186070473D49C8617047F0B50A46002399
:102A900000240021002500F00046B6F1004F02D1CD
:102AA000354EF16901E0344E7168C0F3034583B2DD
:102AB00000F44016B6F5401F08D121F070612E4E8B
:102AC000766826F070662C4F7E6012E000F4801667
:102AD000B6F5801F06D1032606FA05F4A14341F09E
:102AE000706106E0460D360103FA06F6B14341F087
:102AF000706122B1460D360103FA06F6314300F04B
:102B00000046B6F1004F02D11B4EF16101E01A4EB2
:102B10007160F0BD30B500228B071C0F0F2303FA44
:102B200004F2154B08338C1053F824309343124CA5
:102B300008348D1044F8253023468C1053F8243087
:102B40008C07240F00FA04F423430B4C08348D1037
:102B500044F8253030BD0A4908607047000801403C
:102B6000000C014000100140001401400018014019
:102B7000001C0140002001400000014000002042F4
:102B8000DC002042DD48006840F00100DB490860BD
:102B900008464068DA490840D84948600846006855
:102BA000D8490840D54908600846006820F48020CC
:102BB00008600846406820F4FE0048604FF41F009B
:102BC00088607047CD49096821F48031CB4A116093
:102BD0001146096821F480211160B0F5803F03D0CF
:102BE000B0F5802F0ED106E0C449096841F4803168
:102BF000C24A116007E0C149096841F4A021BF4AF7
:102C0000116000E000BF00BF704710B50146002210
:102C1000002300204A11012A02D1B84C236806E0A3
:102C2000022A02D1B54C236A01E0B44C636A01F078
:102C30001F02012494401C4201D0012000E000202A
:102C400010BD38B5002000900024002500BF3120C1
:102C5000FFF7DBFF05460098401C00900098B0F598
:102C6000A06F01D0002DF2D03120FFF7CEFF08B1C8
:102C7000012400E00024204638BD014600209F4A80
:102C8000106820F0F80040EAC100106070479E49CB
:102C90000860704702460020984B586820F47C106A
:102CA00042EA01031843954B5860704796490866FD
:102CB000704701460020914A506820F00300084305
:102CC000506070478D48406800F00C007047014626
:102CD00000208A4A506820F0F00008435060704796
:102CE00001460020854A506820F4E06008435060A7
:102CF000704701460020814A506820F4605040EA45
:102D0000C1005060704729B17C4A527A02437B4B24
:102D10005A7204E0794A527A8243784B5A72704769
:102D20007A490860704701460020744A506820F4D0
:102D300040400843506070470021754A11706F4A47
:102D400082F82010012802D0042808D103E00121D4
:102D50006F4A117004E005216D4A117000E000BF58
:102D600000BF70476B49086070476449096A0143B6
:102D7000624A11627047674944390860704730B54C
:102D800000210022002400235C4D6D6805F00C0139
:102D900021B1042905D0082923D105E05E4D056045
:102DA00022E05D4D05601FE0544D6D6805F4701222
:102DB000524D6D6805F48034022505EB92421CB932
:102DC000564D554305600BE04C4D6D6815F4003FC2
:102DD00003D0524D5543056002E04F4D5543056009
:102DE00002E04D4D056000BF00BF444D6D6805F029
:102DF000F00109094A4D6B5C0568DD4045603F4DB7
:102E00006D6805F4E061090A454D6B5C4568DD407D
:102E100085603A4D6D6805F46051C90A404D6B5CA0
:102E20004568DD40C560354D6D6805F44041890B4E
:102E30003C4D6B5CC568B5FBF3F5056130BD29B150
:102E40002E4A526902432D4B5A6104E02B4A5269C3
:102E500082432A4B5A61704729B1284A926902433A
:102E6000264B9A6104E0254A92698243234B9A617A
:102E7000704729B1214AD2690243204BDA6104E04C
:102E80001E4AD26982431D4BDA61704729B11B4A41
:102E9000D2680243194BDA6004E0184AD2688243D0
:102EA000164BDA60704729B1144A12690243134B7A
:102EB0001A6104E0114A12698243104B1A6170478B
:102EC00014494039086070470F49C86470470B497E
:102ED000C87170470948406A40F0807007494862ED
:102EE000704701460020054A92680A4201D001203D
:102EF00000E00020704701498872704700100240CE
:102F00000000FFF8FFFFF6FE00004242D8004242F8
:102F1000201002408004424200127A0000093D0065
:102F2000B2000020C2000020064880470648004743
:102F3000FEE7FEE7FEE7FEE7FEE7FEE7FEE7FEE769
:102F4000FEE7FEE79D020008ED00000810B504460C
:102F5000FA48844208D101214015FFF797FF00216C
:102F60006015FFF793FF17E0F548844208D101216F
:102F70000015FFF78BFF00212015FFF787FF0BE0FF
:102F8000F048844208D10121C803FFF77FFF0021E8
:102F90004FF40040FFF77AFF10BD30B50246002025
:102FA00000235068E84C20400D790C6844EA052461
:102FB000204350609068E54C2040D1E902542C43F6
:102FC0004D7944EA450420439060D06A20F47000B3
:102FD0000C7C641EE4B2234340EA0350D06230BD4F
:102FE00000210160017141718160C16001210174A2
:102FF000704721B1826842F00102826003E082687A
:1030000022F001028260704721B1826842F480722E
:10301000826003E0826822F480728260704710B59B
:103020000023CBB21AB144681C43446002E04468F8
:103030009C43446010BD816841F008018160704785
:10304000014600208A6812F0080F01D0012000E03C
:1030500000207047816841F004018160704701469B
:1030600000208A6812F0040F01D0012000E0002047
:10307000704721B1826842F4A002826003E0826856
:1030800022F4A00282607047014600208A6812F490
:10309000800F01D0012000E00020704710B50A46E3
:1030A00000210023416821F46041531E41EA43316D
:1030B000416010BD21B1426842F40062426003E009
:1030C000426822F4006242607047F0B504460D4643
:1030D00000200021092D11DDE068A5F10A0606EBAC
:1030E0004607072606FA07F18843A5F10A0606EB0C
:1030F000460603FA06F10843E0600CE0206905EBA0
:103100004507072606FA07F1884305EB450603FA4B
:1031100006F108432061072A0FDA606B561E06EBA2
:1031200086071F2606FA07F18843561E06EB860619
:1031300005FA06F10843606322E00D2A0FDA206BDE
:10314000D61F06EB86071F2606FA07F18843D61F0F
:1031500006EB860605FA06F10843206310E0E06AF4
:10316000A2F10D0606EB86071F2606FA07F1884333
:10317000A2F10D0606EB860605FA06F10843E062A9
:10318000F0BD21B1826842F48012826003E082685F
:1031900022F48012826070470146C86C80B270478A
:1031A00066484C300068704721B1426842F4806242
:1031B000426003E0426822F480624260704721B1BD
:1031C000426842F48052426003E0426822F4805236
:1031D000426070470A460021816821F4E0411143B2
:1031E0008160704721B1826842F40042826003E04E
:1031F000826822F400428260704721B1826842F402
:103200000212826003E0826822F402128260704738
:10321000014600208A6812F4001F01D0012000E05E
:1032200000207047F0B50446154600200022002615
:10323000092911DDE068A1F10A0707EB470C072710
:1032400007FA0CF29043A1F10A0707EB470703FACC
:1032500007F21043E0600CE0206901EB410C072706
:1032600007FA0CF2904301EB410703FA07F210430F
:103270002061A06BC0F30156EF1C06F1010CA7EB17
:103280000C0707EB870C1F2707FA0CF29043EF1C83
:1032900006F1010CA7EB0C0707EB870701FA07F211
:1032A0001043A063F0BD10B50A4600210023816BD6
:1032B00021F44011531E41EA0351816310BD08B54A
:1032C000002300930090009B0B440093009B1A6026
:1032D00008BD08B5024600200090009201F12800C8
:1032E000009B184400900098006880B208BD0A4610
:1032F00000214168164B19401143416070474162FB
:10330000826270470A460021416821F01F01114383
:103310004160704740B109490831096841F4000132
:10332000064A0832116007E004490831096821F4AF
:103330000001024A08321160704700000024014079
:1033400000280140003C0140FFFEF0FFFDF7F1FFC7
:10335000FFFD3FFF0246002013680B4201D0012011
:1033600000E000207047CA430260704770B5024613
:103370000020002300240B125568CEB205EA060493
:1033800015681D4202D00CB1012000E0002070BD84
:1033900000220A12D3430360704700000146002058
:1033A000FE4A106800F03800084310607047FB497F
:1033B000096821F00801F94A1160114609680143C2
:1033C00011607047F549096821F01001F34A116056
:1033D00011460968014311607047F148EF494860A0
:1033E000F04848607047EE48EC494860ED48486056
:1033F0007047EA48006940F08000E849086170477A
:10340000E648006940F08000E44908617047042004
:10341000E249C96811F0010F01D001200EE0DF4937
:10342000C96811F0040F01D0022007E0DB49C96828
:1034300011F0100F01D0032000E00420704700B508
:1034400002460423FFF7E3FF034603E0FFF7DFFF35
:103450000346521E012B01D1002AF7D102B90523E0
:10346000184600BD30B5044604254FF43020FFF760
:10347000E6FF0546042D17D1C848006940F0020058
:10348000C649086108464461006940F0400008618F
:103490004FF43020FFF7D3FF0546C048006941F6DE
:1034A000FD710840BD490861284630BD10B50424AF
:1034B0004FF43020FFF7C3FF0446042C16D1B74861
:1034C000006940F00400B54908610846006940F011
:1034D000400008614FF43020FFF7B1FF0446AF48C9
:1034E000006941F6FB710840AC490861204610BDF7
:1034F00000B502460423FFF78AFF034603E0FFF707
:1035000086FF0346521E012B01D1002AF7D102B9D2
:103510000523184600BD10B504244FF43020FFF7F2
:10352000E7FF0446042C16D19C48006940F00400D3
:103530009A4908610846006940F0400008614FF46C
:103540003020FFF7D5FF04469448006941F6FB712F
:10355000084092490861204610BD00208F49C96982
:1035600011F0020F01D0012000E00020704730B5BB
:10357000A5250424FFF7F1FF00B100254FF430200A
:10358000FFF75DFF0446042C3AD1854883498860E3
:10359000844888600846006940F0200008610846B9
:1035A000006940F0400008614FF43020FFF747FF0A
:1035B0000446042C1BD17948006941F6DF710840AC
:1035C000764908610846006940F0100008617648B5
:1035D0000580E002FFF733FF0446052C10D06F484A
:1035E000006941F6EF7108406C49086108E0052C5C
:1035F00006D06A48006941F6EF71084067490861E2
:10360000204630BD78B506460C46042500200090C3
:10361000E802FFF714FF0546042D24D15F48006936
:1036200040F001005D4908613480E802FFF707FFC0
:103630000546042D10D1B01C0090200C0099088084
:10364000E802FFF7FCFE05465448006941F6FE71AA
:1036500008405249086106E05048006941F6FE7191
:1036600008404E490861284678BD70B504460D46AD
:103670000426F002FFF7E3FE0646042E11D1474868
:10368000006940F00100454908612580F002FFF71C
:10369000D6FE06464148006941F6FE7108403F49A2
:1036A0000861304670BD70B505460E460424E00240
:1036B000FFF7C5FE0446042C17D139483749886006
:1036C000384888600846006940F0100008612E8084
:1036D000E002FFF7B4FE0446052C06D02F4800692F
:1036E00041F6EF7108402D490861204670BD2DE973
:1036F000F04304464FF6FF763746B046B146042500
:10370000E443E6B2C4F30727C4F307484FEA146959
:10371000E802FFF794FE0546042D49D120481F49D1
:103720008860204888600846006940F01000086101
:10373000FF2E06D01C4808300680E802FFF77FFE07
:103740000546042D08D1FF2F06D017480A30078000
:10375000E802FFF774FE0546042D0AD1B8F1FF0F09
:1037600007D011480C30A0F80080E802FFF767FE90
:103770000546042D0AD1B9F1FF0F07D00A480E30D3
:10378000A0F80090E802FFF75AFE0546052D0FD07D
:103790000248006941F6EF71084007E0002002404E
:1037A00023016745AB89EFCD00F8FF1F664908612B
:1037B0002846BDE8F08330B5054604244FF4302098
:1037C000FFF73DFE0446042C41D160485E49886005
:1037D0005F4888600846006940F02000086108469C
:1037E000006940F0400008614FF43020FFF727FEE9
:1037F0000446042C22D15448006941F6DF71084088
:10380000514908610846006940F0100008611DB187
:1038100000205049088002E0A5204E4908804FF45E
:103820003020FFF70CFE0446052C10D046480069F6
:1038300041F6EF7108404449086108E0052C06D0C4
:103840004148006941F6DF7108403F490861204660
:1038500030BDF0B505460E46174604243B483A49AC
:1038600088603B488860E002FFF7E9FD0446042CCD
:1038700019D13548006940F010003349086147F01C
:10388000F800304328433349891C0880E002FFF7E1
:10389000D6FD0446052C06D02B48006941F6EF7191
:1038A0000840294908612046F0BD2748C0698008C2
:1038B00070472548006A704700202349096811F0C5
:1038C000200F01D0012000E00020704729B11E4ADE
:1038D000126902431C4B1A6104E01B4A12698243BD
:1038E000194B1A61704701460020012908D1164A78
:1038F000D26912F0010F01D0012008E0002006E09B
:10390000114AD2680A4201D0012000E0002070472D
:103910000D49C860704704200B49C96811F0010FB8
:1039200001D001200EE00849C96811F0040F01D050
:10393000022007E00449C96811F0100F01D00320EC
:1039400000E004207047000000200240230167458A
:10395000AB89EFCD00F8FF1F01684FF6FE721140F2
:1039600001600021016041608160C1608C49884232
:1039700008D18B490839496841F00F01884A083A53
:1039800051608AE086491431884208D18449083957
:10399000496841F0F001824A083A51607DE080496F
:1039A0002831884208D17E490839496841F470615C
:1039B0007B4A083A516070E079493C31884208D12D
:1039C00077490839496841F47041754A083A5160AD
:1039D00063E073495031884208D171490839496818
:1039E00041F470216E4A083A516056E06C496431E6
:1039F000884208D16A490839496841F47001684A27
:103A0000083A516049E066497831884208D16449F2
:103A10000839496841F07061614A083A51603CE0F8
:103A20006049884206D1011F096841F00F01021F59
:103A3000116032E05B491431884208D15949091FAD
:103A4000096841F0F001574A121F116025E05549FD
:103A50002831884208D15349091F096841F470612F
:103A6000504A121F116018E04E493C31884208D17B
:103A70004C49091F096841F470414A4A121F1160FC
:103A80000BE048495031884207D14649091F09686F
:103A900041F47021434A121F1160704710B5002293
:103AA000026847F6F0739A430C6A8B6823430C69EB
:103AB00023434C6923438C692343CC6923434C6AD9
:103AC00023438C6A23431A430260CB6843600B682C
:103AD00083604B68C36010BD00210160416081605C
:103AE000C160016141618161C161016241628162C4
:103AF000704721B1026842F00102026004E00268EE
:103B00004FF6FE731A40026070471AB103680B4308
:103B1000036002E003688B430360704741607047B5
:103B20000146486880B2704701460020002211F02B
:103B3000805F03D01B4B083B1A6802E0184B083B20
:103B40001A680A4201D0012000E00020704710F0FE
:103B5000805F03D01349091F086002E0104908394B
:103B60004860704701460020002211F0805F03D0BA
:103B70000C4B083B1A6802E0094B083B1A680A42E2
:103B800001D0012000E00020704710F0805F03D0DA
:103B90000449091F086002E001490839486070477C
:103BA0000800024008040240F0B480EA0102D40F89
:103BB0004200B2EB410F02D20246084611464A00CB
:103BC00042D0C30DDDB2C1F3C752AD1A202D35DA94
:103BD000C1F3160141F4000204B15242C5F12006BE
:103BE00002FA06F12A411044B3EBD05F23D0C4B1EE
:103BF000012DA0EBC35009DCF0BC4FF0004202EAFB
:103C0000C35200F50000DBB200F0E1B8400000F163
:103C1000807000EBC350A0F1807040EAD170490081
:103C200009E0490841EAC071A0EBC35000F500006B
:103C3000400800EBC350F0BC00F0C0B86142012264
:103C400002EB4101001BF6E7F0BC704781F0004138
:103C5000AAE780F00040A7E780EA010210B502F071
:103C60000043400026D04A0023D04FEA106101EB08
:103C70001261C0F35600C2F3560240F4000042F451
:103C80000002A0FB0220A1F17F014FEA00401404D2
:103C900001D000F1010050EA124001D44000491E59
:103CA000C2B20C0604EBD010401C4008802A02D09F
:103CB00003E0002010BD20F00100002900DA002000
:103CC000184310BD30B480EA010202F0004530F024
:103CD000004221F0004015D0A0B1C0F3C753C2F399
:103CE000C754C2F31601C0F31600E41A41F40001F0
:103CF00040F400027D34914201D3641C00E049008D
:103D0000002C02DA30BC002070474FF40000002382
:103D1000914201D3891A034340084FEA4101F7D188
:103D200051B1914202D14FF0004105E002D24FF073
:103D3000010101E06FF0010103EBC450284430BCE5
:103D400000F03CB8C10F80EAE0700844CA0796232F
:103D5000002100F03CB896230022114600F037B84D
:103D600000F0004220F00040C10DC0F3160040F406
:103D700000007F2901DA00207047962903DCC1F199
:103D80009601C84001E096398840002AF4D04042AC
:103D900070470000002801DBC0F10040002901DB72
:103DA000C1F1004181427047002801DBC0F10040B1
:103DB000002901DBC1F10041884270470029A8BFFA
:103DC0007047401C490008BF20F00100704710B444
:103DD000B0FA80FC00FA0CF050EA010404BF10BCF9
:103DE000704749B1CCF1200421FA04F411FA0CF126
:103DF00018BF012121430843A3EB0C01CB1D010691
:103E0000000A002BBEBF002010BC704700EBC3505F
:103E100010440029A4BF10BC7047401C490008BFD3
:103E200020F0010010BC7047064C074D06E0E0682A
:103E300040F0010394E8070098471034AC42F6D3F1
:103E4000FCF758F96C3E00088C3E000802E008C8F8
:103E5000121F08C1002AFAD170477047002001E004
:103E600001C1121F002AFBD1704700008C3E0008E0
:103E700000000020C80000004C3E0008543F00082D
:103E8000C8000020880700005C3E00080000000019
:103E900000000000000000000000000000A24A0432
:103EA00000000000000000000102030406070809EA
:103EB000F7F9FDFF01030709000000000000000002
:103EC00000000000000000000000000000000000F2
:103ED00000000000000000000000C843000016447D
:103EE00000007A440000A040000040410000B041C2
:103EF000000020410000C8420000F0420000000025
:103F000000000000000000000000000000000000B1
:103F100000000000010000000000000000000000A0
:103F20000000000000000000000000000000000091
:103F3000000000000000000000000000040100007C
:103F40000000010203040102030406070809020439
:043F5000060800005F
:04000005080000ED02
:00000001FF
